:020000040800F2
:100000004004002045010008290E00082B0E0008BE
:100010002F0E0008330E0008370E00080000000005
:100020000000000000000000000000003B0E00087F
:100030003D0E0008000000003F0E0008410E0008C1
:100040005F0100085F0100085F0100085F01000810
:100050005F0100085F0100085F0100085F01000800
:100060005F0100085F0100085F0100085F010008F0
:100070005F0100085F0100085F0100085F010008E0
:100080005F0100085F0100085F0100085F010008D0
:100090005F0100085F0100085F010008490E0008C9
:1000A0005F0100085F0100085F0100085F010008B0
:1000B0005F0100085F0100085F0100085F010008A0
:1000C0005F0100085F0100085F0100085F01000890
:1000D0005F0100085F0100085F0100085F01000880
:1000E000790E00085F0100085F0100085F01000849
:1000F0005F0100085F0100085F0100085F01000860
:100100005F0100085F0100085F0100085F0100084F
:100110005F0100085F0100085F0100085F0100083F
:100120005F0100085F0100085F0100085F0100082F
:10013000DFF80CD001F07CFE004800472B0D0008D2
:10014000400400200648804706480047FEE7FEE7D7
:10015000FEE7FEE7FEE7FEE7FEE7FEE7FEE7FEE777
:1001600047020008310100080CB500200190009002
:100170006C48006840F480306A49086000BF6948F4
:10018000006800F4003000900198401C0190009835
:1001900018B90198B0F5A06FF1D16248006800F479
:1001A000003010B10120009001E000200090009884
:1001B000012843D15C48006840F010005A490860AB
:1001C0000846006820F0030008600846006840F018
:1001D0000200086053484068524948600846406839
:1001E00048600846406840F48060486008464068BF
:1001F00020F47C1048600846406840F4E8104860ED
:100200000846006840F08070086000BF45480068FC
:1002100000F000700028F9D04248406820F0030048
:10022000404948600846406840F00200486000BF0E
:100230003C48406800F00C000828F9D10CBD10B50E
:10024000FFF792FF10BD10B53648006840F001007E
:1002500034490860084640683449084031494860DC
:1002600008460068324908402E4908600846006880
:1002700020F4802008600846406820F4FE004860B2
:100280004FF41F008860FFF7DAFF4FF00060294944
:10029000086010BD10B5002100200022214B5B68D2
:1002A00003F00C0121B1042906D0082928D107E068
:1002B000214B224C236027E01F4B204C236023E07E
:1002C000184B5B6803F47010164B5B6803F48032C4
:1002D000022303EB904022B9194B4343174C236090
:1002E0000DE0104B5B6803F4003323B1144B434320
:1002F000124C236003E0104B4343104C236003E097
:100300000D4B0E4C236000BF00BF064B5B68C3F370
:1003100003130C4CE15C094B1B68CB40074C23607A
:1003200010BD000000100240002002400000FFF855
:10033000FFFFF6FE08ED00E000127A00000000204A
:1003400000093D000400002031490143314A116099
:10035000704770B5002100230F22C47804B32D4CE0
:10036000246804F4E064C4F5E064210AC1F10403E4
:10037000CA40447804FA03F1847814402143090107
:10038000254C0678A155047804F01F050124AC40E3
:1003900005786D11AD0005F1E025C5F8004109E0D3
:1003A000047804F01F050124AC401C4D067876113A
:1003B00045F8264070BD1A4A0A400243154B1B1FE0
:1003C0001A60704739B1134A121D12680243114B6B
:1003D0001B1D1A6006E00F4A121D126882430D4B66
:1003E0001B1D1A607047042808D14FF0E0210969ED
:1003F00041F004014FF0E022116107E04FF0E021ED
:10040000096921F004014FF0E022116170470000FA
:100410000000FA050CED00E000E400E080E100E0FF
:1004200080FFFF1F002044490860091D0860091D66
:100430000860091D086041483F4914310860704751
:1004400000213D498279002A3AD00A4612680368A1
:100450009A430B461A600A1D126803689A430B1DE3
:100460001A60027911440A6803681A430A60324A22
:100470000832126803689A432F4B08331A601A1D1A
:10048000126803689A432C4B0C331A604279102A85
:100490000ED11A1F126803681A43274B08331A60DB
:1004A0001A1D126803681A43234B0C331A600DE0BF
:1004B0002149427911440A6803681A430A6005E039
:1004C000027911440A6803689A430A607047002160
:1004D000016001710C214171002181717047164941
:1004E000103109680143144A103211607047014607
:1004F0000020114A143212680A400AB1012000E0BB
:10050000002070470C4914310860704701460020F4
:100510000022094B1B6803EA0102074B14331B68D6
:100520000B4013B10AB1012000E0002070470249DE
:10053000143108607047000000040140FFFF0F0005
:1005400010B50446CC48844208D10121042000F0B3
:100550002DFB0021042000F029FB46E0C74884421F
:1005600008D10121082000F021FB0021082000F023
:100570001DFB3AE0C248844208D10121102000F05E
:1005800015FB0021102000F011FB2EE0BD48844235
:1005900008D10121202000F009FB0021202000F0DB
:1005A00005FB22E0B848844208D10121402000F038
:1005B000FDFA0021402000F0F9FA16E0B348844229
:1005C00008D10121802000F0F1FA0021802000F004
:1005D000EDFA0AE0AE48844207D10121801500F00F
:1005E000E5FA0021A01500F0E1FA10BD10B50121D7
:1005F000084600F0DBFA0021012000F0D7FA10BD18
:100600002DE9F041024600250026002000230024A9
:10061000002791F803C00CF00F0591F803C00CF00F
:10062000100CBCF1000F03D091F802C04CEA050594
:1006300091F800C0BCF1000F31D0146800202BE00D
:100640004FF0010C0CFA00F3B1F800C00CEA0306FD
:100650009E4220D183004FF00F0C0CFA03F7BC43ED
:1006600005FA03FC4CEA040491F803C0BCF1280F1E
:1006700006D14FF0010C0CFA00FCC2F814C00AE0DD
:1006800091F803C0BCF1480F05D14FF0010C0CFAF2
:1006900000FCC2F810C0401C0828D1D31460B1F887
:1006A00000C0BCF1FF0F34DD546800202EE000F1E3
:1006B000080C4FF0010808FA0CF3B1F800C00CEA7E
:1006C00003069E4221D183004FF00F0C0CFA03F772
:1006D000BC4305FA03FC4CEA040491F803C0BCF1E6
:1006E000280F05D100F1080C08FA0CF8C2F81480A4
:1006F00091F803C0BCF1480F07D100F1080C4FF08E
:10070000010808FA0CF8C2F81080401C0828CED363
:100710005460BDE8F0814FF6FF71018002218170C5
:100720000421C17070470246002093680B400BB152
:10073000012000E0002070470146886880B27047C1
:1007400002460020D3680B400BB1012000E00020DE
:1007500070470146C86880B27047016170474161C7
:1007600070470AB1016100E041617047C1607047A4
:100770004FF480320A4382618161826182698269B9
:10078000704702460020434B18684FF680731840AC
:1007900040EA021008433F4B186070473E49C86169
:1007A0007047F0B50A46002300240021002500F020
:1007B0000046B6F1004F02D1364EF16901E0354EE8
:1007C0007168C0F3034583B200F44016B6F5401FCC
:1007D00008D121F070612F4E766826F070662D4F9B
:1007E0007E6012E000F48016B6F5801F06D1032665
:1007F00006FA05F4A14341F0706106E0460D3601AA
:1008000003FA06F6B14341F0706122B1460D36019C
:1008100003FA06F6314300F00046B6F1004F02D16C
:100820001C4EF16101E01B4E7160F0BD30B500223D
:100830008B071C0F0F2303FA04F2164B08338C109E
:1008400053F824309343134C08348D1044F825306A
:1008500023468C1053F824308C07240F00FA04F43C
:1008600023430C4C08348D1044F8253030BD0A4920
:10087000DC3108607047000000080140000C0140B6
:10088000001001400014014000180140001C01400C
:10089000002001400000014000002042DF480068C5
:1008A00040F00100DD49086008464068DC49084026
:1008B000DA49486008460068DA490840D7490860C4
:1008C0000846006820F4802008600846406820F44C
:1008D000FE0048604FF41F0088607047CF490968E8
:1008E00021F48031CD4A11601146096821F480213C
:1008F0001160B0F5803F03D0B0F5802F0ED106E037
:10090000C649096841F48031C44A116007E0C3490F
:10091000096841F4A021C14A116000E000BF00BF96
:10092000704710B501460022002300204A11012A19
:1009300002D1BA4C236806E0022A02D1B74C236ADE
:1009400001E0B64C636A01F01F02012494401C4090
:100950000CB1012000E0002010BD38B5002000904F
:100960000024002500BF3120FFF7DBFF054600987B
:10097000401C00900098B0F5A06F01D0002DF2D07F
:100980003120FFF7CEFF08B1012400E0002420460B
:1009900038BD01460020A14A106820F0F80040EA66
:1009A000C10010607047A0490860704702460020EF
:1009B0009A4B586820F47C1042EA01031843974B85
:1009C0005860704798490866704701460020934A6E
:1009D000506820F003000843506070478F4840681B
:1009E00000F00C007047014600208C4A506820F04F
:1009F000F00008435060704701460020874A506865
:100A000020F4E06008435060704701460020834AAC
:100A1000506820F4605040EAC1005060704729B12E
:100A20007E4A527A02437D4B5A7204E07B4A527AE4
:100A300082437A4B5A7270477B49D83108607047BD
:100A400001460020754A506820F440400843506039
:100A500070470021714A20321170704A82F82010CC
:100A6000012802D004280AD104E001216B4A203277
:100A7000117005E00521694A2032117000E000BFC5
:100A800000BF70476949086070476449096A0143BB
:100A9000624A11627047654944390860704730B551
:100AA00000210022002400235C4D6D6805F00C013C
:100AB00021B1042905D0082923D105E05C4D05604A
:100AC00022E05B4D05601FE0544D6D6805F4701227
:100AD000524D6D6805F48034022505EB92421CB935
:100AE000544D554305600BE04C4D6D6805F40035E1
:100AF0001DB1504D5543056002E04D4D5543056015
:100B000002E04B4D056000BF00BF444D6D6805F02D
:100B1000F0010909484D6B5C0568DD4045603F4DBB
:100B20006D6805F4E061090A434D6B5C4568DD4082
:100B300085603A4D6D6805F46051C90A3E4D6B5CA5
:100B40004568DD40C560354D6D6805F44041890B51
:100B50003A4D6B5CC568B5FBF3F5056130BD29B155
:100B60002E4A526902432D4B5A6104E02B4A5269C6
:100B700082432A4B5A61704729B1284A926902433D
:100B8000264B9A6104E0254A92698243234B9A617D
:100B9000704729B1214AD2690243204BDA6104E04F
:100BA0001E4AD26982431D4BDA61704729B11B4A44
:100BB000D2680243194BDA6004E0184AD2688243D3
:100BC000164BDA60704729B1144A12690243134B7D
:100BD0001A6104E0114A12698243104B1A6170478E
:100BE00012494039086070470F49C86470470B4983
:100BF000C87170470948406A40F0807007494862F0
:100C0000704701460020054A92680A400AB1012057
:100C100000E00020704701498872704700100240D0
:100C20000000FFF8FFFFF6FE00004242800442424F
:100C300000127A0000093D0014000020240000206A
:100C400010B5002452E020216A48FFF786FD2021DC
:100C50006948FFF782FD40216748FFF77EFD67483E
:100C600000F0ADF920216348FFF779FD20216248AB
:100C7000FFF775FD40216048FFF771FD01216048D5
:100C8000FFF76BFD10215C48FFF767FD80215A4894
:100C9000FFF763FD594800F092F901215848FFF72A
:100CA0005EFD10215448FFF75AFD80215248FFF79E
:100CB00056FD02215248FFF750FD08214E48FFF72C
:100CC0004CFD10214B48FFF748FD4C4800F077F9E8
:100CD00002214B48FFF743FD08214748FFF73FFD3E
:100CE00010214448FFF73BFD601CC4B2032CAADB73
:100CF00000240AE0204600F0A8FD204600F06EFE29
:100D00003E4800F05CF9601CC4B20A2CF2DB00F033
:100D100032FF04213848FFF720FD3A4800F04FF930
:100D200004213548FFF71BFD10BD00F04BFD00F01E
:100D3000DDF800F03FFF00F00DF9012080F310888E
:100D400000BF002080F3108800BF00F0ADFFFFF768
:100D500077FF01202C49088000F056F900F0EAF9ED
:100D600000F07EFA44E029480078A8B100F049FC80
:100D7000274800F024F900F001FB04211E48FFF78A
:100D8000ECFC1E4800F01BF904211B48FFF7E7FCB0
:100D900000201E4908702BE01E48007828B100F0A2
:100DA00061FB00201B49087022E01B48007828B135
:100DB00000F0C2FB00201849087019E017480078BD
:100DC00028B100F0DBFA00201449087010E0144844
:100DD000007828B100F09FFC00201149087007E05E
:100DE0001048007820B100F097FC00200D490870F1
:100DF000B9E700000010014000080140A086010092
:100E0000000C0140400D03003600002028000020A7
:100E100080841E00290000202A0000202B000020D2
:100E20002C0000202D000020704700BFFEE700BF0F
:100E3000FEE700BFFEE700BFFEE770477047704760
:100E400010B500F0CEF810BD10B54FF48070FFF76C
:100E50005DFB28B101201F4908700002FFF767FB06
:100E60004FF40070FFF752FB28B101201A490870B7
:100E70004002FFF75CFB10BD10B54FF48060FFF738
:100E800045FB28B10120154908708002FFF74FFB90
:100E90004FF40060FFF73AFB28B1012010490870B9
:100EA000C002FFF744FB4FF48050FFF72FFB28B13F
:100EB00001200C4908700003FFF739FB4FF4005084
:100EC000FFF724FB28B10120074908704003FFF712
:100ED0002EFB10BD29000020280000202D0000203E
:100EE0002A0000202B0000202C00002008B5012142
:100EF0001C20FFF741FE10208DF8030003208DF821
:100F00000200F820ADF8000069460F48FFF778FBB3
:100F10000320ADF8000069460C48FFF771FB302054
:100F2000ADF8000069460A48FFF76AFBF821064859
:100F3000FFF715FC03210548FFF711FC3021044899
:100F4000FFF70DFC08BD000000080140000C014047
:100F50000010014030B527480068274AB0FBF2F185
:100F6000B1F1807F01D301201DE021F07F40401EC0
:100F70004FF0E022506150170F22002807DA1307C4
:100F80001D0E1E4B00F00F04241F1D5503E0130718
:100F90001C0E1B4B1C5400BF00204FF0E022906140
:100FA00007201061002008B100BFFEE74FF0E020ED
:100FB000006920F001004FF0E021086130BD01B56B
:100FC0001049009808604FF0E020006940F00100EF
:100FD0004FF0E021086100BF0A4800680028FBD1FB
:100FE00008BD0848006820B106480068401E054951
:100FF000086070470000002040420F0018ED00E03C
:1010000000E400E03000002008B501210820FFF7CF
:10101000B3FD10208DF8030003208DF802004FF47B
:101020008060ADF800006946FE48FFF7E9FA4FF42A
:101030008061FC48FFF793FB08BD08B5012108203B
:10104000FFF79AFD03208DF8020014208DF80300AD
:101050004FF48060ADF800006946F248FFF7D0FA1F
:101060004FF48061EF48FFF778FB08BD08B5012118
:101070000820FFF781FD10208DF8030003208DF874
:1010800002004FF40060ADF800006946E548FFF744
:10109000B7FA4FF40061E348FFF761FB08BD08B5FC
:1010A00001210820FFF768FD03208DF802001420BD
:1010B0008DF803004FF40060ADF800006946D94890
:1010C000FFF79EFA4FF40061D648FFF746FB08BDD4
:1010D00008B501210820FFF74FFD10208DF803000F
:1010E00003208DF802004FF48050ADF800006946EF
:1010F000CC48FFF785FA4FF48051CA48FFF72FFB21
:1011000008BD08B501210820FFF736FD03208DF842
:10111000020014208DF803004FF48050ADF8000059
:101120006946C048FFF76CFA4FF48051BD48FFF79D
:1011300014FB08BD08B501210820FFF71DFD102094
:101140008DF8030003208DF802004FF40050ADF835
:1011500000006946B348FFF753FA4FF40051B14815
:10116000FFF7FDFA08BD08B501210820FFF704FDCF
:1011700003208DF8020014208DF803004FF4005076
:10118000ADF800006946A748FFF73AFA4FF400515E
:10119000A448FFF7E2FA08BD08B501210820FFF7CF
:1011A000EBFC10208DF8030003208DF802004FF4B3
:1011B0008040ADF8000069469A48FFF721FA4FF4E5
:1011C00080419848FFF7CBFA08BD08B501210820F7
:1011D000FFF7D2FC03208DF8020014208DF80300E5
:1011E0004FF48040ADF8000069468E48FFF708FADA
:1011F0004FF480418B48FFF7B0FA08BD08B50121D4
:101200000820FFF7B9FC10208DF8030003208DF8AB
:1012100002004FF40040ADF8000069468148FFF736
:10122000EFF94FF400417F48FFF799FA08BD08B580
:1012300001210820FFF7A0FC03208DF802001420F4
:101240008DF803004FF40040ADF800006946754882
:10125000FFF7D6F94FF400417248FFF77EFA08BD58
:1012600008B501211020FFF787FC10208DF803003E
:1012700003208DF802004020ADF8000069466A485E
:10128000FFF7BEF940216848FFF769FA08BD08B5C5
:1012900001211020FFF770FC03208DF802001420BC
:1012A0008DF803004020ADF8000069465E48FFF766
:1012B000A7F940215C48FFF750FA08BD08B50121A5
:1012C0001020FFF759FC10208DF8030003208DF843
:1012D00002008020ADF8000069465348FFF790F9FE
:1012E00080215148FFF73BFA08BD08B501211020C5
:1012F000FFF742FC03208DF8020014208DF8030054
:101300008020ADF8000069464748FFF779F9802151
:101310004548FFF722FA08BD08B501211020FFF764
:101320002BFC10208DF8030003208DF802004FF4F1
:101330008070ADF8000069463B48FFF761F94FF453
:1013400080713948FFF70BFA08BD08B5012110205C
:10135000FFF712FC03208DF8020014208DF8030023
:101360004FF48070ADF8000069462F48FFF748F948
:101370004FF480712C48FFF7F0F908BD10B5FFF766
:10138000F2FEFFF709FF0020284908800EE0FFF772
:1013900035FF4620FFF713FEFFF749FFD220FFF786
:1013A0000EFE22480088401C204908801F48008803
:1013B000B0F5207FEBDBFFF7BDFE20211C48FFF7D7
:1013C000CCF91C48FFF7FBFD10211948FFF7C5F9C0
:1013D0001848FFF7F4FD20211548FFF7C0F9082150
:1013E0001348FFF7BAF91348FFF7E9FD1021104839
:1013F000FFF7B5F90F48FFF7E2FD08210C48FFF7AA
:10140000AEF90D480088401C0B490880084600884A
:101410000A2190FBF1F201FB12000849087006480E
:1014200000880DE0000C0140001001403400002055
:1014300000080140A086010036000020380000208E
:101440000A2190FBF1F090FBF1F201FB1200D4496C
:101450000870D448007800F0C1FAD148007800F054
:10146000F4F910BD10B5FFF77EFEFFF7AEFE1CE0ED
:101470000020CD4908800EE0FFF7C0FE4620FFF7B0
:101480009EFDFFF7D4FED220FFF799FDC6480088E5
:10149000401CC5490880C4480088B0F5207FEBDBBC
:1014A000C2480088401EC1490880C0480088012801
:1014B000DEDCFFF73FFE0821BD48FFF74EF9BD48CF
:1014C000FFF77DFD1021BA48FFF747F9B948FFF74C
:1014D00076FD0821B648FFF742F92021B448FFF70E
:1014E0003CF9B448FFF76BFD1021B148FFF737F91D
:1014F000B048FFF764FD2021AD48FFF730F9AB4855
:1015000000880A2190FBF1F201FB1200A549087046
:10151000A64800880A2190FBF1F090FBF1F201FB54
:1015200012009F4908709F48007800F057FA9C48C5
:10153000007800F08AF910BD10B5FFF714FEFFF730
:1015400044FE0020984908800EE0FFF757FE462031
:10155000FFF735FDFFF76BFED220FFF730FD924815
:101560000088401C904908808F480088B0F5207F93
:10157000EBDBFFF7DFFD08218D48FFF7EEF88D4824
:10158000FFF71DFD10218A48FFF7E7F88948FFF7AC
:1015900016FD08218648FFF7E2F820218448FFF76E
:1015A000DCF88448FFF70BFD10218148FFF7D7F8DE
:1015B0008048FFF704FD20217D48FFF7D0F87B48E5
:1015C0000088401E79490880084600880A2190FB5F
:1015D000F1F201FB120073490870744800880A2177
:1015E00090FBF1F090FBF1F201FB12006C490870E6
:1015F0006C48007800F0F2F96948007800F025F9AD
:1016000010BD10B5FFF719FDFFF749FD0020664931
:1016100008800FE0FFF75CFDC820FFF7D0FCFFF764
:1016200070FD4FF41670FFF7CAFC5F480088401C3D
:101630005D4908805C480088B0F5C84FEADBFFF7D9
:10164000E3FC20215C48FFF788F85A48FFF7B7FC15
:1016500001215A48FFF781F85648FFF7B0FC2021D6
:101660005548FFF77CF802215448FFF776F85148B7
:10167000FFF7A5FC01215148FFF771F84D48FFF72E
:101680009EFC02214D48FFF76AF84D48FFF797FC92
:10169000FFF7D3FCFFF7EAFC0020434908800EE087
:1016A000FFF716FD4620FFF78AFCFFF72AFDD22040
:1016B000FFF785FC3C480088401C3B4908803A48BD
:1016C0000088B0F5C84FEBDBFFF79EFC02213B48DA
:1016D000FFF743F83748FFF772FC01213748FFF75F
:1016E0003CF83448FFF76BFC02213448FFF737F829
:1016F00020212F48FFF731F82E48FFF760FC012129
:101700002E48FFF72CF82B48FFF759FC20212A48D8
:10171000FFF725F810BD704710B5FFF78EFCFFF7F7
:10172000A5FC0020204908800EE0FFF7D1FC4620F0
:10173000FFF745FCFFF7E5FCD220FFF740FC1A4815
:101740000088401C1849088017480088B0F5207FA1
:10175000EBDBFFF759FC02211848FEF7FEFF1548A6
:10176000FFF72DFC01211548FEF7F7FF1148FFF7A1
:1017700026FC02211148FEF7F2FF20210C48FEF75B
:10178000ECFF0C48FFF71BFC01210C48FEF7E7FFBC
:101790000848FFF714FC20210748FEF7E0FF10BDC2
:1017A00039000020380000203400002036000020DE
:1017B00000080140A086010000100140000C01401B
:1017C000C0C62D0008B501210846FFF7D5F9012153
:1017D000F348FEF7E6FF01213C20FFF7CDF910208A
:1017E0008DF8030003208DF80200ADF80000694673
:1017F000EC48FEF705FF4FF47E70ADF80000694637
:10180000E948FEF7FDFE41F60F00ADF8000069461D
:10181000E648FEF7F5FE0420ADF800006946E4480E
:10182000FEF7EEFE0321DF48FEF799FF4FF47E71CD
:10183000DD48FEF794FF41F60F01DC48FEF78FFF0D
:101840000421DB48FEF78BFF08BD10B504460A2CC7
:1018500017D2DFE804F005172D3F51677D8FA1AF48
:101860000321D048FEF779FF4FF48071CE48FEF790
:1018700074FF0B21CD48FEF770FF0421CB48FEF723
:101880006EFFA9E00121C748FEF767FF0221C748A4
:10189000FEF763FF0221C348FEF761FF4FF480713A
:1018A000C148FEF75CFF0D21C048FEF758FF93E0EA
:1018B0000321BC48FEF751FF4FF48071BA48FEF790
:1018C0004CFF0521B948FEF748FF0A21B748FEF74B
:1018D00046FF81E00321B348FEF73FFF4FF48071DC
:1018E000B148FEF73AFF0621B048FEF736FF09215E
:1018F000AE48FEF734FF6FE00121AA48FEF72DFF46
:101900000E21AA48FEF729FF0221A648FEF727FF6D
:101910004FF48071A448FEF722FF0121A348FEF78F
:101920001EFF59E002219F48FEF717FF4FF4807118
:101930009D48FEF712FF0E219C48FEF70EFF012185
:101940009848FEF70CFF01219848FEF708FF43E096
:1019500002219448FEF701FF4FF480719248FEF790
:10196000FCFE0F219148FEF7F8FE01218D48FEF79D
:10197000F6FE31E003218B48FEF7EFFE02218B4893
:10198000FEF7EBFE4FF480718748FEF7E8FE0D216D
:101990008648FEF7E4FE1FE003218248FEF7DDFEE5
:1019A0004FF480718048FEF7D8FE0F217F48FEF784
:1019B000D4FE11E003217B48FEF7CFFE4FF4807187
:1019C0007948FEF7CAFE0E217848FEF7C6FE0121CF
:1019D0007648FEF7C4FE00BF00BF10BD10B5044638
:1019E0000A2C17D2DFE804F005172940576E808EC5
:1019F000A5B3C8216C48FEF7B0FE4FF4C0516B4848
:101A0000FEF7ABFE04216A48FEF7A7FE10216648E8
:101A1000FEF7A5FEADE008216348FEF79EFE042117
:101A20006348FEF79AFED0215F48FEF798FE4FF418
:101A3000C0515E48FEF793FE9BE0D0215A48FEF766
:101A40008CFE4FF400615948FEF787FE0421584888
:101A5000FEF783FE08215448FEF781FE4FF48051C3
:101A60005248FEF77CFE84E098214F48FEF775FE51
:101A70004FF400614D48FEF770FE04214C48FEF71C
:101A80006CFE40214848FEF76AFE4FF480514748FB
:101A9000FEF765FE6DE018214348FEF75EFE4FF449
:101AA00080514248FEF759FE04214148FEF755FE99
:101AB000C0213D48FEF753FE4FF400613B48FEF75E
:101AC0004EFE56E098213848FEF747FE4FF4C051CD
:101AD0003648FEF742FE40213348FEF740FE04211F
:101AE0003348FEF73CFE44E0D8212F48FEF735FE90
:101AF0004FF4C0512D48FEF730FE04212C48FEF76C
:101B00002EFE36E008212848FEF727FE4FF400613C
:101B10002648FEF722FE04212548FEF71EFED021AE
:101B20002148FEF71CFE4FF480512048FEF717FEB7
:101B30001FE0D8211C48FEF710FE4FF4C0511B488F
:101B4000FEF70BFE04211A48FEF707FE11E098216C
:101B50001548FEF702FE4FF4C0511448FEF7FDFD94
:101B600004211348FEF7F9FD40210F48FEF7F7FD69
:101B700000BF00BF10BD10B503210A48FEF7EFFDFE
:101B80004FF47E710848FEF7EAFD41F60F01074861
:101B9000FEF7E5FD04210648FEF7E1FD10BD00005B
:101BA0000004300000080140000C0140001001401A
:101BB0000014014008B501210420FEF7DDFF1020CC
:101BC0008DF8030003208DF802000420ADF800001A
:101BD00069460448FEF714FD04210248FEF7BFFDE4
:101BE00008BD00000008014008B54FF4C060FEF7D2
:101BF000ABFB17208DF8000001208DF801000020BC
:101C00008DF8020001208DF803006846FEF7A1FB65
:101C100017208DF8000001208DF8010000208DF8BC
:101C2000020001208DF803006846FEF792FB282091
:101C30008DF8000001208DF8010000208DF80200D1
:101C400001208DF803006846FEF783FB28208DF8FD
:101C5000000001208DF8010000208DF80200012015
:101C60008DF803006846FEF774FB28208DF800000D
:101C700001208DF8010000208DF8020001208DF870
:101C800003006846FEF765FB28208DF80000012060
:101C90008DF8010000208DF8020001208DF803006E
:101CA0006846FEF756FB08BD0EB501210846FEF753
:101CB00063FF01211420FEF75FFFFFF795FF482027
:101CC0008DF80B004FF40070ADF8080002A95648DB
:101CD000FEF796FC09210220FEF7A8FD4FF40070E4
:101CE000009000208DF804000C208DF805000120E4
:101CF0008DF806006846FEF7A3FB48208DF80B0020
:101D00004FF48070ADF8080002A94848FEF778FC4F
:101D100008210020FEF78AFD4FF48070009000201B
:101D20008DF804000C208DF8050001208DF80600C8
:101D30006846FEF785FB48208DF80B004FF40060E5
:101D4000ADF8080002A93948FEF75AFC0B21002023
:101D5000FEF76CFD4FF40060009000208DF8040049
:101D60000C208DF8050001208DF806006846FEF76E
:101D700067FB48208DF80B004FF48050ADF8080049
:101D800002A92A48FEF73CFC0C210020FEF74EFD7C
:101D90004FF48050009000208DF804000C208DF846
:101DA000050001208DF806006846FEF749FB482033
:101DB0008DF80B004FF40050ADF8080002A91B4845
:101DC000FEF71EFC0D210020FEF730FD4FF4005001
:101DD000009000208DF804000C208DF805000120F3
:101DE0008DF806006846FEF72BFB48208DF80B00A7
:101DF0004FF48060ADF8080002A90B48FEF700FC24
:101E00000A210220FEF712FD4FF4806000900020AE
:101E10008DF804000C208DF8050001208DF80600D7
:101E20006846FEF70DFB0EBD0010014000080140A2
:101E3000064C074D06E0E06840F0010394E8070017
:101E400098471034AC42F6D3FEF776F9741E0008BA
:101E5000941E000802E008C8121F08C1002AFAD127
:101E600070477047002001E001C1121F002AFBD11A
:101E700070470000941E0008000000203C00000095
:101E8000541E0008D01E00083C000020040400007E
:101E9000641E000800A24A040000000000000000C8
:101EA0000102030406070809000000000102030400
:101EB00001020304060708090204060800000000E6
:101EC0000000000000000000000000000000000012
:0400000508000131BD
:00000001FF
