:020000040800F2
:100000004004002045010008A10E0008A30E0008CE
:10001000A70E0008AB0E0008AF0E0008000000009D
:10002000000000000000000000000000B30E000807
:10003000B50E000800000000B70E0008B90E000859
:100040005F0100085F0100085F0100085F01000810
:100050005F0100085F0100085F0100085F01000800
:100060005F0100085F0100085F0100085F010008F0
:100070005F0100085F0100085F0100085F010008E0
:100080005F0100085F0100085F0100085F010008D0
:100090005F0100085F0100085F010008C10E000851
:1000A0005F0100085F0100085F0100085F010008B0
:1000B0005F0100085F0100085F0100085F010008A0
:1000C0005F0100085F0100085F0100085F01000890
:1000D0005F0100085F0100085F0100085F01000880
:1000E000F10E00085F0100085F0100085F010008D1
:1000F0005F0100085F0100085F0100085F01000860
:100100005F0100085F0100085F0100085F0100084F
:100110005F0100085F0100085F0100085F0100083F
:100120005F0100085F0100085F0100085F0100082F
:10013000DFF80CD001F0B8FE004800472B0D000896
:10014000400400200648804706480047FEE7FEE7D7
:10015000FEE7FEE7FEE7FEE7FEE7FEE7FEE7FEE777
:1001600047020008310100080CB500200190009002
:100170006C48006840F480306A49086000BF6948F4
:10018000006800F4003000900198401C0190009835
:1001900018B90198B0F5A06FF1D16248006800F479
:1001A000003010B10120009001E000200090009884
:1001B000012843D15C48006840F010005A490860AB
:1001C0000846006820F0030008600846006840F018
:1001D0000200086053484068524948600846406839
:1001E00048600846406840F48060486008464068BF
:1001F00020F47C1048600846406840F4E8104860ED
:100200000846006840F08070086000BF45480068FC
:1002100000F000700028F9D04248406820F0030048
:10022000404948600846406840F00200486000BF0E
:100230003C48406800F00C000828F9D10CBD10B50E
:10024000FFF792FF10BD10B53648006840F001007E
:1002500034490860084640683449084031494860DC
:1002600008460068324908402E4908600846006880
:1002700020F4802008600846406820F4FE004860B2
:100280004FF41F008860FFF7DAFF4FF00060294944
:10029000086010BD10B5002100200022214B5B68D2
:1002A00003F00C0121B1042906D0082928D107E068
:1002B000214B224C236027E01F4B204C236023E07E
:1002C000184B5B6803F47010164B5B6803F48032C4
:1002D000022303EB904022B9194B4343174C236090
:1002E0000DE0104B5B6803F4003323B1144B434320
:1002F000124C236003E0104B4343104C236003E097
:100300000D4B0E4C236000BF00BF064B5B68C3F370
:1003100003130C4CE15C094B1B68CB40074C23607A
:1003200010BD000000100240002002400000FFF855
:10033000FFFFF6FE08ED00E000127A00000000204A
:1003400000093D000400002031490143314A116099
:10035000704770B5002100230F22C47804B32D4CE0
:10036000246804F4E064C4F5E064210AC1F10403E4
:10037000CA40447804FA03F1847814402143090107
:10038000254C0678A155047804F01F050124AC40E3
:1003900005786D11AD0005F1E025C5F8004109E0D3
:1003A000047804F01F050124AC401C4D067876113A
:1003B00045F8264070BD1A4A0A400243154B1B1FE0
:1003C0001A60704739B1134A121D12680243114B6B
:1003D0001B1D1A6006E00F4A121D126882430D4B66
:1003E0001B1D1A607047042808D14FF0E0210969ED
:1003F00041F004014FF0E022116107E04FF0E021ED
:10040000096921F004014FF0E022116170470000FA
:100410000000FA050CED00E000E400E080E100E0FF
:1004200080FFFF1F002044490860091D0860091D66
:100430000860091D086041483F4914310860704751
:1004400000213D498279002A3AD00A4612680368A1
:100450009A430B461A600A1D126803689A430B1DE3
:100460001A60027911440A6803681A430A60324A22
:100470000832126803689A432F4B08331A601A1D1A
:10048000126803689A432C4B0C331A604279102A85
:100490000ED11A1F126803681A43274B08331A60DB
:1004A0001A1D126803681A43234B0C331A600DE0BF
:1004B0002149427911440A6803681A430A6005E039
:1004C000027911440A6803689A430A607047002160
:1004D000016001710C214171002181717047164941
:1004E000103109680143144A103211607047014607
:1004F0000020114A143212680A400AB1012000E0BB
:10050000002070470C4914310860704701460020F4
:100510000022094B1B6803EA0102074B14331B68D6
:100520000B4013B10AB1012000E0002070470249DE
:10053000143108607047000000040140FFFF0F0005
:1005400010B50446CC48844208D10121042000F0B3
:100550002DFB0021042000F029FB46E0C74884421F
:1005600008D10121082000F021FB0021082000F023
:100570001DFB3AE0C248844208D10121102000F05E
:1005800015FB0021102000F011FB2EE0BD48844235
:1005900008D10121202000F009FB0021202000F0DB
:1005A00005FB22E0B848844208D10121402000F038
:1005B000FDFA0021402000F0F9FA16E0B348844229
:1005C00008D10121802000F0F1FA0021802000F004
:1005D000EDFA0AE0AE48844207D10121801500F00F
:1005E000E5FA0021A01500F0E1FA10BD10B50121D7
:1005F000084600F0DBFA0021012000F0D7FA10BD18
:100600002DE9F041024600250026002000230024A9
:10061000002791F803C00CF00F0591F803C00CF00F
:10062000100CBCF1000F03D091F802C04CEA050594
:1006300091F800C0BCF1000F31D0146800202BE00D
:100640004FF0010C0CFA00F3B1F800C00CEA0306FD
:100650009E4220D183004FF00F0C0CFA03F7BC43ED
:1006600005FA03FC4CEA040491F803C0BCF1280F1E
:1006700006D14FF0010C0CFA00FCC2F814C00AE0DD
:1006800091F803C0BCF1480F05D14FF0010C0CFAF2
:1006900000FCC2F810C0401C0828D1D31460B1F887
:1006A00000C0BCF1FF0F34DD546800202EE000F1E3
:1006B000080C4FF0010808FA0CF3B1F800C00CEA7E
:1006C00003069E4221D183004FF00F0C0CFA03F772
:1006D000BC4305FA03FC4CEA040491F803C0BCF1E6
:1006E000280F05D100F1080C08FA0CF8C2F81480A4
:1006F00091F803C0BCF1480F07D100F1080C4FF08E
:10070000010808FA0CF8C2F81080401C0828CED363
:100710005460BDE8F0814FF6FF71018002218170C5
:100720000421C17070470246002093680B400BB152
:10073000012000E0002070470146886880B27047C1
:1007400002460020D3680B400BB1012000E00020DE
:1007500070470146C86880B27047016170474161C7
:1007600070470AB1016100E041617047C1607047A4
:100770004FF480320A4382618161826182698269B9
:10078000704702460020434B18684FF680731840AC
:1007900040EA021008433F4B186070473E49C86169
:1007A0007047F0B50A46002300240021002500F020
:1007B0000046B6F1004F02D1364EF16901E0354EE8
:1007C0007168C0F3034583B200F44016B6F5401FCC
:1007D00008D121F070612F4E766826F070662D4F9B
:1007E0007E6012E000F48016B6F5801F06D1032665
:1007F00006FA05F4A14341F0706106E0460D3601AA
:1008000003FA06F6B14341F0706122B1460D36019C
:1008100003FA06F6314300F00046B6F1004F02D16C
:100820001C4EF16101E01B4E7160F0BD30B500223D
:100830008B071C0F0F2303FA04F2164B08338C109E
:1008400053F824309343134C08348D1044F825306A
:1008500023468C1053F824308C07240F00FA04F43C
:1008600023430C4C08348D1044F8253030BD0A4920
:10087000DC3108607047000000080140000C0140B6
:10088000001001400014014000180140001C01400C
:10089000002001400000014000002042DF480068C5
:1008A00040F00100DD49086008464068DC49084026
:1008B000DA49486008460068DA490840D7490860C4
:1008C0000846006820F4802008600846406820F44C
:1008D000FE0048604FF41F0088607047CF490968E8
:1008E00021F48031CD4A11601146096821F480213C
:1008F0001160B0F5803F03D0B0F5802F0ED106E037
:10090000C649096841F48031C44A116007E0C3490F
:10091000096841F4A021C14A116000E000BF00BF96
:10092000704710B501460022002300204A11012A19
:1009300002D1BA4C236806E0022A02D1B74C236ADE
:1009400001E0B64C636A01F01F02012494401C4090
:100950000CB1012000E0002010BD38B5002000904F
:100960000024002500BF3120FFF7DBFF054600987B
:10097000401C00900098B0F5A06F01D0002DF2D07F
:100980003120FFF7CEFF08B1012400E0002420460B
:1009900038BD01460020A14A106820F0F80040EA66
:1009A000C10010607047A0490860704702460020EF
:1009B0009A4B586820F47C1042EA01031843974B85
:1009C0005860704798490866704701460020934A6E
:1009D000506820F003000843506070478F4840681B
:1009E00000F00C007047014600208C4A506820F04F
:1009F000F00008435060704701460020874A506865
:100A000020F4E06008435060704701460020834AAC
:100A1000506820F4605040EAC1005060704729B12E
:100A20007E4A527A02437D4B5A7204E07B4A527AE4
:100A300082437A4B5A7270477B49D83108607047BD
:100A400001460020754A506820F440400843506039
:100A500070470021714A20321170704A82F82010CC
:100A6000012802D004280AD104E001216B4A203277
:100A7000117005E00521694A2032117000E000BFC5
:100A800000BF70476949086070476449096A0143BB
:100A9000624A11627047654944390860704730B551
:100AA00000210022002400235C4D6D6805F00C013C
:100AB00021B1042905D0082923D105E05C4D05604A
:100AC00022E05B4D05601FE0544D6D6805F4701227
:100AD000524D6D6805F48034022505EB92421CB935
:100AE000544D554305600BE04C4D6D6805F40035E1
:100AF0001DB1504D5543056002E04D4D5543056015
:100B000002E04B4D056000BF00BF444D6D6805F02D
:100B1000F0010909484D6B5C0568DD4045603F4DBB
:100B20006D6805F4E061090A434D6B5C4568DD4082
:100B300085603A4D6D6805F46051C90A3E4D6B5CA5
:100B40004568DD40C560354D6D6805F44041890B51
:100B50003A4D6B5CC568B5FBF3F5056130BD29B155
:100B60002E4A526902432D4B5A6104E02B4A5269C6
:100B700082432A4B5A61704729B1284A926902433D
:100B8000264B9A6104E0254A92698243234B9A617D
:100B9000704729B1214AD2690243204BDA6104E04F
:100BA0001E4AD26982431D4BDA61704729B11B4A44
:100BB000D2680243194BDA6004E0184AD2688243D3
:100BC000164BDA60704729B1144A12690243134B7D
:100BD0001A6104E0114A12698243104B1A6170478E
:100BE00012494039086070470F49C86470470B4983
:100BF000C87170470948406A40F0807007494862F0
:100C0000704701460020054A92680A400AB1012057
:100C100000E00020704701498872704700100240D0
:100C20000000FFF8FFFFF6FE00004242800442424F
:100C300000127A0000093D0014000020240000206A
:100C400010B5002452E020218848FFF786FD2021BE
:100C50008748FFF782FD40218548FFF77EFD8548E4
:100C600000F0E9F920218148FFF779FD2021804833
:100C7000FFF775FD40217E48FFF771FD01217E4899
:100C8000FFF76BFD10217A48FFF767FD8021784858
:100C9000FFF763FD774800F0CEF901217648FFF7B2
:100CA0005EFD10217248FFF75AFD80217048FFF762
:100CB00056FD02217048FFF750FD08216C48FFF7F0
:100CC0004CFD10216948FFF748FD6A4800F0B3F970
:100CD00002216948FFF743FD08216548FFF73FFD02
:100CE00010216248FFF73BFD601CC4B2032CAADB55
:100CF00000240AE0204600F0E4FD204600F0AAFEB1
:100D00005C4800F098F9601CC4B20A2CF2DB00F0D9
:100D10006EFF04215648FFF720FD584800F08BF97C
:100D200004215348FFF71BFD10BD00F087FD00F0C4
:100D300019F900F07BFF00F049F9012080F31088D9
:100D400000BF002080F3108800BF00F0E9FFFFF72C
:100D500077FF01204A49088000F092F900F026FA56
:100D600000F0BAFA80E047480078F8B144F6206015
:100D700000F061F94FF400713C48FFF7D4FC88B9EA
:100D800000F07BFC404800F056F900F033FB0421F2
:100D90003748FFF7E2FC374800F04DF904213448AA
:100DA000FFF7DDFC0020374908705DE03748007828
:100DB00078B144F6206000F03EF94FF480712C4881
:100DC000FFF7B1FC08B900F089FB00202F4908703B
:100DD0004AE02F48007878B144F6206000F02BF903
:100DE0004FF400612248FFF79EFC08B900F0E0FBD9
:100DF00000202749087037E02648007878B144F68B
:100E0000206000F018F94FF480511948FFF78BFC6F
:100E100008B900F0EFFA00201E49087024E01E48CF
:100E2000007878B144F6206000F005F94FF40051E5
:100E30000F48FFF778FC08B900F0A9FC002016491C
:100E4000087011E01548007870B144F6206000F099
:100E5000F2F84FF480610548FFF765FC08B900F02F
:100E600097FC00200D4908707DE70000001001404C
:100E700000080140A0860100000C0140400D030065
:100E8000360000202800002080841E002900002059
:100E90002A0000202B0000202C0000202D00002024
:100EA000704700BFFEE700BFFEE700BFFEE700BFE0
:100EB000FEE770477047704710B500F0CEF810BDE0
:100EC00010B54FF48070FFF721FB28B101201F49B6
:100ED00008700002FFF72BFB4FF40070FFF716FBC2
:100EE00028B101201A4908704002FFF720FB10BD0D
:100EF00010B54FF48060FFF709FB28B101201549B8
:100F000008708002FFF713FB4FF40060FFF7FEFA52
:100F100028B1012010490870C002FFF708FB4FF408
:100F20008050FFF7F3FA28B101200C490870000344
:100F3000FFF7FDFA4FF40050FFF7E8FA28B101205F
:100F4000074908704003FFF7F2FA10BD290000209E
:100F5000280000202D0000202A0000202B00002067
:100F60002C00002008B501211C20FFF705FE1020F1
:100F70008DF8030003208DF80200F820ADF8000082
:100F800069460F48FFF73CFB0320ADF800006946B7
:100F90000C48FFF735FB3020ADF8000069460A48E1
:100FA000FFF72EFBF8210648FFF7D9FB0321054880
:100FB000FFF7D5FB30210448FFF7D1FB08BD000047
:100FC00000080140000C01400010014030B52748E6
:100FD0000068274AB0FBF2F1B1F1807F01D3012014
:100FE0001DE021F07F40401E4FF0E022506150177D
:100FF0000F22002807DA13071D0E1E4B00F00F0406
:10100000241F1D5503E013071C0E1B4B1C5400BF6F
:1010100000204FF0E022906107201061002008B10D
:1010200000BFFEE74FF0E020006920F001004FF024
:10103000E021086130BD01B51049009808604FF00B
:10104000E020006940F001004FF0E021086100BF9E
:101050000A4800680028FBD108BD0848006820B194
:1010600006480068401E05490860704700000020DF
:1010700040420F0018ED00E000E400E030000020E6
:1010800008B501210820FFF777FD10208DF8030037
:1010900003208DF802004FF48060ADF8000069462F
:1010A000FE48FFF7ADFA4FF48061FC48FFF757FBAD
:1010B00008BD08B501210820FFF75EFD03208DF86B
:1010C000020014208DF803004FF48060ADF800009A
:1010D0006946F248FFF794FA4FF48061EF48FFF752
:1010E0003CFB08BD08B501210820FFF745FD102095
:1010F0008DF8030003208DF802004FF40060ADF876
:1011000000006946E548FFF77BFA4FF40061E348C9
:10111000FFF725FB08BD08B501210820FFF72CFDCE
:1011200003208DF8020014208DF803004FF40060B6
:10113000ADF800006946D948FFF762FA4FF4006144
:10114000D648FFF70AFB08BD08B501210820FFF7C4
:1011500013FD10208DF8030003208DF802004FF4DA
:101160008050ADF800006946CC48FFF749FA4FF4CB
:101170008051CA48FFF7F3FA08BD08B501210820DD
:10118000FFF7FAFC03208DF8020014208DF803000D
:101190004FF48050ADF800006946C048FFF730FAC0
:1011A0004FF48051BD48FFF7D8FA08BD08B50121BA
:1011B0000820FFF7E1FC10208DF8030003208DF8D4
:1011C00002004FF40050ADF800006946B348FFF745
:1011D00017FA4FF40051B148FFF7C1FA08BD08B53E
:1011E00001210820FFF7C8FC03208DF8020014201D
:1011F0008DF803004FF40050ADF800006946A74891
:10120000FFF7FEF94FF40051A448FFF7A6FA08BD16
:1012100008B501210820FFF7AFFC10208DF803006E
:1012200003208DF802004FF48040ADF800006946BD
:101230009A48FFF7E5F94FF480419848FFF78FFA95
:1012400008BD08B501210820FFF796FC03208DF8A2
:10125000020014208DF803004FF48040ADF8000028
:1012600069468E48FFF7CCF94FF480418B48FFF771
:1012700074FA08BD08B501210820FFF77DFC102095
:101280008DF8030003208DF802004FF40040ADF804
:10129000000069468148FFF7B3F94FF400417F48E9
:1012A000FFF75DFA08BD08B501210820FFF764FCCF
:1012B00003208DF8020014208DF803004FF4004045
:1012C000ADF8000069467548FFF79AF94FF4004100
:1012D0007248FFF742FA08BD08B501211020FFF758
:1012E0004BFC10208DF8030003208DF802004020F5
:1012F000ADF8000069466A48FFF782F94021684866
:10130000FFF72DFA08BD08B501211020FFF734FCC6
:1013100003208DF8020014208DF803004020ADF862
:10132000000069465E48FFF76BF940215C48FFF713
:1013300014FA08BD08B501211020FFF71DFC10208C
:101340008DF8030003208DF802008020ADF8000026
:1013500069465348FFF754F980215148FFF7FFF9D8
:1013600008BD08B501211020FFF706FC03208DF809
:10137000020014208DF803008020ADF800006946BB
:101380004748FFF73DF980214548FFF7E6F908BDDA
:1013900008B501211020FFF7EFFB10208DF80300A6
:1013A00003208DF802004FF48070ADF8000069460C
:1013B0003B48FFF725F94FF480713948FFF7CFF923
:1013C00008BD08B501211020FFF7D6FB03208DF8DA
:1013D000020014208DF803004FF48070ADF8000077
:1013E00069462F48FFF70CF94FF480712C48FFF73E
:1013F000B4F908BD10B5FFF7F2FEFFF709FF0020B2
:10140000284908800EE0FFF735FF4620FFF713FE5E
:10141000FFF749FFD220FFF70EFE22480088401C4C
:10142000204908801F480088B0F5207FEBDBFFF7DC
:10143000BDFE20211C48FFF790F91C48FFF7FBFD7B
:1014400010211948FFF789F91848FFF7F4FD20210A
:101450001548FFF784F908211348FFF77EF9134870
:10146000FFF7E9FD10211048FFF779F90F48FFF762
:10147000E2FD08210C48FFF772F90D480088401C76
:101480000B490880084600880A2190FBF1F201FB15
:10149000120008490870064800880DE0000C014061
:1014A000001001403400002000080140A086010027
:1014B00036000020380000200A2190FBF1F090FB5C
:1014C000F1F201FB1200D4490870D448007800F012
:1014D000C1FAD148007800F0F4F910BD10B5FFF75B
:1014E0007EFEFFF7AEFE1CE00020CD4908800EE036
:1014F000FFF7C0FE4620FFF79EFDFFF7D4FED22087
:10150000FFF799FDC6480088401CC5490880C448BB
:101510000088B0F5207FEBDBC2480088401EC1493F
:101520000880C04800880128DEDCFFF73FFE082164
:10153000BD48FFF712F9BD48FFF77DFD1021BA48FD
:10154000FFF70BF9B948FFF776FD0821B648FFF71A
:1015500006F92021B448FFF700F9B448FFF76BFD06
:101560001021B148FFF7FBF8B048FFF764FD2021D8
:10157000AD48FFF7F4F8AB4800880A2190FBF1F280
:1015800001FB1200A5490870A64800880A2190FBBB
:10159000F1F090FBF1F201FB12009F4908709F48A7
:1015A000007800F057FA9C48007800F08AF910BDE6
:1015B00010B5FFF714FEFFF744FE0020984908809D
:1015C0000EE0FFF757FE4620FFF735FDFFF76BFEF5
:1015D000D220FFF730FD92480088401C90490880D7
:1015E0008F480088B0F5207FEBDBFFF7DFFD082197
:1015F0008D48FFF7B2F88D48FFF71DFD10218A488E
:10160000FFF7ABF88948FFF716FD08218648FFF77A
:10161000A6F820218448FFF7A0F88448FFF70BFDC7
:1016200010218148FFF79BF88048FFF704FD202137
:101630007D48FFF794F87B480088401E7949088070
:10164000084600880A2190FBF1F201FB1200734961
:101650000870744800880A2190FBF1F090FBF1F2C9
:1016600001FB12006C4908706C48007800F0F2F938
:101670006948007800F025F910BD10B5FFF719FD95
:10168000FFF749FD0020664908800FE0FFF75CFD89
:10169000C820FFF7D0FCFFF770FD4FF41670FFF77E
:1016A000CAFC5F480088401C5D4908805C4800888F
:1016B000B0F5C84FEADBFFF7E3FC20215C48FFF7F9
:1016C0004CF85A48FFF7B7FC01215A48FFF745F894
:1016D0005648FFF7B0FC20215548FFF740F802219B
:1016E0005448FFF73AF85148FFF7A5FC012151484B
:1016F000FFF735F84D48FFF79EFC02214D48FFF7F4
:101700002EF84D48FFF797FCFFF7D3FCFFF7EAFCF4
:101710000020434908800EE0FFF716FD4620FFF742
:101720008AFCFFF72AFDD220FFF785FC3C480088A1
:10173000401C3B4908803A480088B0F5C84FEBDBB5
:10174000FFF79EFC02213B48FFF707F83748FFF7F9
:1017500072FC01213748FFF700F83448FFF76BFCB3
:1017600002213448FEF7FBFF20212F48FEF7F5FF4A
:101770002E48FFF760FC01212E48FEF7F0FF2B48B2
:10178000FFF759FC20212A48FEF7E9FF10BD7047FA
:1017900010B5FFF78EFCFFF7A5FC0020204908805C
:1017A0000EE0FFF7D1FC4620FFF745FCFFF7E5FC14
:1017B000D220FFF740FC1A480088401C18490880D6
:1017C00017480088B0F5207FEBDBFFF759FC0221BA
:1017D0001848FEF7C2FF1548FFF72DFC01211548F8
:1017E000FEF7BBFF1148FFF726FC02211148FEF768
:1017F000B6FF20210C48FEF7B0FF0C48FFF71BFC9A
:1018000001210C48FEF7ABFF0848FFF714FC20212C
:101810000748FEF7A4FF10BD390000203800002063
:10182000340000203600002000080140A08601009E
:1018300000100140000C0140C0C62D0008B5012178
:101840000846FFF799F90121F348FEF7AAFF0121A5
:101850003C20FFF791F910208DF8030003208DF84C
:101860000200ADF800006946EC48FEF7C9FE4FF4EF
:101870007E70ADF800006946E948FEF7C1FE41F60A
:101880000F00ADF800006946E648FEF7B9FE0420F7
:10189000ADF800006946E448FEF7B2FE0321DF48D8
:1018A000FEF75DFF4FF47E71DD48FEF758FF41F60D
:1018B0000F01DC48FEF753FF0421DB48FEF74FFF22
:1018C00008BD10B504460A2C17D2DFE804F005174E
:1018D0002D3F51677D8FA1AF0321D048FEF73DFF1B
:1018E0004FF48071CE48FEF738FF0B21CD48FEF74C
:1018F00034FF0421CB48FEF732FFA9E00121C7489D
:10190000FEF72BFF0221C748FEF727FF0221C3483D
:10191000FEF725FF4FF48071C148FEF720FF0D212F
:10192000C048FEF71CFF93E00321BC48FEF715FFFB
:101930004FF48071BA48FEF710FF0521B948FEF751
:101940000CFF0A21B748FEF70AFF81E00321B348E4
:10195000FEF703FF4FF48071B148FEF7FEFE06214B
:10196000B048FEF7FAFE0921AE48FEF7F8FE6FE038
:101970000121AA48FEF7F1FE0E21AA48FEF7EDFE6E
:101980000221A648FEF7EBFE4FF48071A448FEF753
:10199000E6FE0121A348FEF7E2FE59E002219F483E
:1019A000FEF7DBFE4FF480719D48FEF7D6FE0E2158
:1019B0009C48FEF7D2FE01219848FEF7D0FE012197
:1019C0009848FEF7CCFE43E002219448FEF7C5FE9E
:1019D0004FF480719248FEF7C0FE0F219148FEF748
:1019E000BCFE01218D48FEF7BAFE31E003218B4891
:1019F000FEF7B3FE02218B48FEF7AFFE4FF4807175
:101A00008748FEF7ACFE0D218648FEF7A8FE1FE0D2
:101A100003218248FEF7A1FE4FF480718048FEF753
:101A20009CFE0F217F48FEF798FE11E003217B48C2
:101A3000FEF793FE4FF480717948FEF78EFE0E217B
:101A40007848FEF78AFE01217648FEF788FE00BF3F
:101A500000BF10BD10B504460A2C17D2DFE804F011
:101A600005172940576E808EA5B3C8216C48FEF734
:101A700074FE4FF4C0516B48FEF76FFE04216A48B4
:101A8000FEF76BFE10216648FEF769FEADE0082107
:101A90006348FEF762FE04216348FEF75EFED02134
:101AA0005F48FEF75CFE4FF4C0515E48FEF757FEFC
:101AB0009BE0D0215A48FEF750FE4FF40061594890
:101AC000FEF74BFE04215848FEF747FE0821544814
:101AD000FEF745FE4FF480515248FEF740FE84E089
:101AE00098214F48FEF739FE4FF400614D48FEF74C
:101AF00034FE04214C48FEF730FE40214848FEF7F2
:101B00002EFE4FF480514748FEF729FE6DE0182164
:101B10004348FEF722FE4FF480514248FEF71DFE77
:101B200004214148FEF719FEC0213D48FEF717FE8B
:101B30004FF400613B48FEF712FE56E0982138480A
:101B4000FEF70BFE4FF4C0513648FEF706FE40216B
:101B50003348FEF704FE04213348FEF700FE44E05C
:101B6000D8212F48FEF7F9FD4FF4C0512D48FEF75C
:101B7000F4FD04212C48FEF7F2FD36E00821284848
:101B8000FEF7EBFD4FF400612648FEF7E6FD042169
:101B90002548FEF7E2FDD0212148FEF7E0FD4FF495
:101BA00080512048FEF7DBFD1FE0D8211C48FEF7DE
:101BB000D4FD4FF4C0511B48FEF7CFFD04211A4855
:101BC000FEF7CBFD11E098211548FEF7C6FD4FF456
:101BD000C0511448FEF7C1FD04211348FEF7BDFDB6
:101BE00040210F48FEF7BBFD00BF00BF10BD10B580
:101BF00003210A48FEF7B3FD4FF47E710848FEF753
:101C0000AEFD41F60F010748FEF7A9FD0421064885
:101C1000FEF7A5FD10BD00000004300000080140E3
:101C2000000C0140001001400014014008B50121E2
:101C30000420FEF7A1FF10208DF8030003208DF88B
:101C400002000420ADF8000069460448FEF7D8FC05
:101C500004210248FEF783FD08BD00000008014092
:101C600008B54FF4C060FEF76FFB17208DF8000039
:101C700001208DF8010000208DF8020001208DF870
:101C800003006846FEF765FB17208DF80000012071
:101C90008DF8010000208DF8020001208DF803006E
:101CA0006846FEF756FB28208DF8000001208DF8CD
:101CB000010000208DF8020001208DF80300684625
:101CC000FEF747FB28208DF8000001208DF8010069
:101CD00000208DF8020001208DF803006846FEF711
:101CE00038FB28208DF8000001208DF8010000202D
:101CF0008DF8020001208DF803006846FEF729FBED
:101D000028208DF8000001208DF8010000208DF8BA
:101D1000020001208DF803006846FEF71AFB08BD9B
:101D20000EB501210846FEF727FF01211420FEF71A
:101D300023FFFFF795FF48208DF80B004FF400704C
:101D4000ADF8080002A95648FEF75AFC0921022006
:101D5000FEF76CFD4FF40070009000208DF8040039
:101D60000C208DF8050001208DF806006846FEF76E
:101D700067FB48208DF80B004FF48070ADF8080029
:101D800002A94848FEF73CFC08210020FEF74EFD62
:101D90004FF48070009000208DF804000C208DF826
:101DA000050001208DF806006846FEF749FB482033
:101DB0008DF80B004FF40060ADF8080002A9394817
:101DC000FEF71EFC0B210020FEF730FD4FF40060F3
:101DD000009000208DF804000C208DF805000120F3
:101DE0008DF806006846FEF72BFB48208DF80B00A7
:101DF0004FF48050ADF8080002A92A48FEF700FC15
:101E00000C210020FEF712FD4FF4805000900020BE
:101E10008DF804000C208DF8050001208DF80600D7
:101E20006846FEF70DFB48208DF80B004FF400507C
:101E3000ADF8080002A91B48FEF7E2FB0D210020C7
:101E4000FEF7F4FC4FF40050009000208DF80400E1
:101E50000C208DF8050001208DF806006846FEF77D
:101E6000EFFA48208DF80B004FF48060ADF80800C1
:101E700002A90B48FEF7C4FB0A210220FEF7D6FC9C
:101E80004FF48060009000208DF804000C208DF845
:101E9000050001208DF806006846FEF7D1FA0EBD58
:101EA0000010014000080140064C074D06E0E068C4
:101EB00040F0010394E8070098471034AC42F6D391
:101EC000FEF73AF9EC1E00080C1F000802E008C8F3
:101ED000121F08C1002AFAD170477047002001E0A4
:101EE00001C1121F002AFBD1704700000C1F00081F
:101EF000000000203C000000CC1E0008481F000825
:101F00003C00002004040000DC1E000800A24A047B
:101F10000000000000000000010203040607080999
:101F2000000000000102030401020304060708097F
:101F3000020406080000000000000000000000008D
:081F4000000000000000000099
:0400000508000131BD
:00000001FF
